{
  "_format": "hh-sol-artifact-1",
  "contractName": "Raffle",
  "sourceName": "contracts/Raffle.sol",
  "abi": [
    {
      "inputs": [
        {
          "internalType": "address",
          "name": "vrfCoordinatorV2",
          "type": "address"
        },
        {
          "internalType": "uint256",
          "name": "entranceFee",
          "type": "uint256"
        },
        {
          "internalType": "bytes32",
          "name": "gasLane",
          "type": "bytes32"
        },
        {
          "internalType": "uint64",
          "name": "subscriptionId",
          "type": "uint64"
        },
        {
          "internalType": "uint32",
          "name": "callbackGasLimit",
          "type": "uint32"
        },
        {
          "internalType": "uint256",
          "name": "interval",
          "type": "uint256"
        }
      ],
      "stateMutability": "nonpayable",
      "type": "constructor"
    },
    {
      "inputs": [
        {
          "internalType": "address",
          "name": "have",
          "type": "address"
        },
        {
          "internalType": "address",
          "name": "want",
          "type": "address"
        }
      ],
      "name": "OnlyCoordinatorCanFulfill",
      "type": "error"
    },
    {
      "inputs": [],
      "name": "Raffle__NotEnoughETHEntered",
      "type": "error"
    },
    {
      "inputs": [],
      "name": "Raffle__NotOpen",
      "type": "error"
    },
    {
      "inputs": [],
      "name": "Raffle__TransferFailed",
      "type": "error"
    },
    {
      "inputs": [
        {
          "internalType": "uint256",
          "name": "currentBalance",
          "type": "uint256"
        },
        {
          "internalType": "uint256",
          "name": "numPlayers",
          "type": "uint256"
        },
        {
          "internalType": "uint256",
          "name": "rafleState",
          "type": "uint256"
        }
      ],
      "name": "Raffle__UpKeedpNotNeeded",
      "type": "error"
    },
    {
      "anonymous": false,
      "inputs": [
        {
          "indexed": true,
          "internalType": "address",
          "name": "player",
          "type": "address"
        }
      ],
      "name": "RaffleEnter",
      "type": "event"
    },
    {
      "anonymous": false,
      "inputs": [
        {
          "indexed": false,
          "internalType": "uint256",
          "name": "index",
          "type": "uint256"
        }
      ],
      "name": "RequestedRaffleWinner",
      "type": "event"
    },
    {
      "anonymous": false,
      "inputs": [
        {
          "indexed": false,
          "internalType": "address",
          "name": "indexWinner",
          "type": "address"
        }
      ],
      "name": "WinnerPicked",
      "type": "event"
    },
    {
      "inputs": [
        {
          "internalType": "bytes",
          "name": "",
          "type": "bytes"
        }
      ],
      "name": "checkUpkeep",
      "outputs": [
        {
          "internalType": "bool",
          "name": "upKeepNeeded",
          "type": "bool"
        },
        {
          "internalType": "bytes",
          "name": "",
          "type": "bytes"
        }
      ],
      "stateMutability": "view",
      "type": "function"
    },
    {
      "inputs": [],
      "name": "enterRaffle",
      "outputs": [],
      "stateMutability": "payable",
      "type": "function"
    },
    {
      "inputs": [],
      "name": "getEntrenceFee",
      "outputs": [
        {
          "internalType": "uint256",
          "name": "",
          "type": "uint256"
        }
      ],
      "stateMutability": "view",
      "type": "function"
    },
    {
      "inputs": [],
      "name": "getLatesTimeStamp",
      "outputs": [
        {
          "internalType": "uint256",
          "name": "",
          "type": "uint256"
        }
      ],
      "stateMutability": "view",
      "type": "function"
    },
    {
      "inputs": [],
      "name": "getNumWords",
      "outputs": [
        {
          "internalType": "uint256",
          "name": "",
          "type": "uint256"
        }
      ],
      "stateMutability": "pure",
      "type": "function"
    },
    {
      "inputs": [],
      "name": "getNumerOfPlayer",
      "outputs": [
        {
          "internalType": "uint256",
          "name": "",
          "type": "uint256"
        }
      ],
      "stateMutability": "view",
      "type": "function"
    },
    {
      "inputs": [
        {
          "internalType": "uint256",
          "name": "index",
          "type": "uint256"
        }
      ],
      "name": "getPlayer",
      "outputs": [
        {
          "internalType": "address",
          "name": "",
          "type": "address"
        }
      ],
      "stateMutability": "view",
      "type": "function"
    },
    {
      "inputs": [],
      "name": "getRaffleState",
      "outputs": [
        {
          "internalType": "enum Raffle.RaffleState",
          "name": "",
          "type": "uint8"
        }
      ],
      "stateMutability": "view",
      "type": "function"
    },
    {
      "inputs": [],
      "name": "getRecentWinner",
      "outputs": [
        {
          "internalType": "address",
          "name": "",
          "type": "address"
        }
      ],
      "stateMutability": "view",
      "type": "function"
    },
    {
      "inputs": [
        {
          "internalType": "bytes",
          "name": "",
          "type": "bytes"
        }
      ],
      "name": "performUpkeep",
      "outputs": [],
      "stateMutability": "nonpayable",
      "type": "function"
    },
    {
      "inputs": [
        {
          "internalType": "uint256",
          "name": "requestId",
          "type": "uint256"
        },
        {
          "internalType": "uint256[]",
          "name": "randomWords",
          "type": "uint256[]"
        }
      ],
      "name": "rawFulfillRandomWords",
      "outputs": [],
      "stateMutability": "nonpayable",
      "type": "function"
    },
    {
      "inputs": [],
      "name": "requestConfirmations",
      "outputs": [
        {
          "internalType": "uint256",
          "name": "",
          "type": "uint256"
        }
      ],
      "stateMutability": "pure",
      "type": "function"
    }
  ],
  "bytecode": "0x6101606040523480156200001257600080fd5b506040516200180638038062001806833981810160405281019062000038919062000294565b858073ffffffffffffffffffffffffffffffffffffffff1660808173ffffffffffffffffffffffffffffffffffffffff1681525050508460a081815250508573ffffffffffffffffffffffffffffffffffffffff1660c08173ffffffffffffffffffffffffffffffffffffffff16815250508360e081815250508267ffffffffffffffff166101008167ffffffffffffffff16815250508163ffffffff166101208163ffffffff16815250506000600260146101000a81548160ff021916908360018111156200010d576200010c62000330565b5b0217905550426001819055508061014081815250505050505050506200035f565b600080fd5b600073ffffffffffffffffffffffffffffffffffffffff82169050919050565b6000620001608262000133565b9050919050565b620001728162000153565b81146200017e57600080fd5b50565b600081519050620001928162000167565b92915050565b6000819050919050565b620001ad8162000198565b8114620001b957600080fd5b50565b600081519050620001cd81620001a2565b92915050565b6000819050919050565b620001e881620001d3565b8114620001f457600080fd5b50565b6000815190506200020881620001dd565b92915050565b600067ffffffffffffffff82169050919050565b6200022d816200020e565b81146200023957600080fd5b50565b6000815190506200024d8162000222565b92915050565b600063ffffffff82169050919050565b6200026e8162000253565b81146200027a57600080fd5b50565b6000815190506200028e8162000263565b92915050565b60008060008060008060c08789031215620002b457620002b36200012e565b5b6000620002c489828a0162000181565b9650506020620002d789828a01620001bc565b9550506040620002ea89828a01620001f7565b9450506060620002fd89828a016200023c565b93505060806200031089828a016200027d565b92505060a06200032389828a01620001bc565b9150509295509295509295565b7f4e487b7100000000000000000000000000000000000000000000000000000000600052602160045260246000fd5b60805160a05160c05160e05161010051610120516101405161143e620003c86000396000610795015260006106560152600061063301526000610612015260006105d601526000818161038b01526103b10152600081816102c9015261031d015261143e6000f3fe6080604052600436106100a75760003560e01c806353a2c19a1161006457806353a2c19a146101895780636e04ff0d146101b45780637e6cef7e146101f2578063b0fb162f1461021d578063e55ae4e814610248578063ecccd98d14610285576100a7565b8063115cbaf5146100ac5780631fe543e3146100d757806321ccad05146101005780632cfcc5391461012b5780634585e33b14610135578063473f1ddc1461015e575b600080fd5b3480156100b857600080fd5b506100c16102b0565b6040516100ce9190610bac565b60405180910390f35b3480156100e357600080fd5b506100fe60048036038101906100f99190610d6a565b6102c7565b005b34801561010c57600080fd5b50610115610387565b6040516101229190610dd5565b60405180910390f35b6101336103af565b005b34801561014157600080fd5b5061015c60048036038101906101579190610e4b565b61051e565b005b34801561016a57600080fd5b50610173610719565b6040516101809190610ed9565b60405180910390f35b34801561019557600080fd5b5061019e610743565b6040516101ab9190610dd5565b60405180910390f35b3480156101c057600080fd5b506101db60048036038101906101d69190610fa9565b610752565b6040516101e992919061108c565b60405180910390f35b3480156101fe57600080fd5b506102076107ff565b6040516102149190610dd5565b60405180910390f35b34801561022957600080fd5b50610232610809565b60405161023f9190610dd5565b60405180910390f35b34801561025457600080fd5b5061026f600480360381019061026a91906110bc565b610816565b60405161027c9190610ed9565b60405180910390f35b34801561029157600080fd5b5061029a61085d565b6040516102a79190610dd5565b60405180910390f35b6000600260149054906101000a900460ff16905090565b7f000000000000000000000000000000000000000000000000000000000000000073ffffffffffffffffffffffffffffffffffffffff163373ffffffffffffffffffffffffffffffffffffffff161461037957337f00000000000000000000000000000000000000000000000000000000000000006040517f1cf993f40000000000000000000000000000000000000000000000000000000081526004016103709291906110e9565b60405180910390fd5b6103838282610869565b5050565b60007f0000000000000000000000000000000000000000000000000000000000000000905090565b7f0000000000000000000000000000000000000000000000000000000000000000341015610409576040517fbd4e069500000000000000000000000000000000000000000000000000000000815260040160405180910390fd5b6000600181111561041d5761041c610b35565b5b600260149054906101000a900460ff16600181111561043f5761043e610b35565b5b14610476576040517f1425571c00000000000000000000000000000000000000000000000000000000815260040160405180910390fd5b6000339080600181540180825580915050600190039060005260206000200160009091909190916101000a81548173ffffffffffffffffffffffffffffffffffffffff021916908373ffffffffffffffffffffffffffffffffffffffff1602179055503373ffffffffffffffffffffffffffffffffffffffff167f0805e1d667bddb8a95f0f09880cf94f403fb596ce79928d9f29b74203ba284d460405160405180910390a2565b600061053860405180602001604052806000815250610752565b509050806105a75747600080549050600260149054906101000a900460ff16600181111561056957610568610b35565b5b6040517f83a388fe00000000000000000000000000000000000000000000000000000000815260040161059e93929190611112565b60405180910390fd5b6001600260146101000a81548160ff021916908360018111156105cd576105cc610b35565b5b021790555060007f000000000000000000000000000000000000000000000000000000000000000073ffffffffffffffffffffffffffffffffffffffff16635d3b1d307f00000000000000000000000000000000000000000000000000000000000000007f000000000000000000000000000000000000000000000000000000000000000060037f000000000000000000000000000000000000000000000000000000000000000060016040518663ffffffff1660e01b81526004016106979594939291906111c1565b6020604051808303816000875af11580156106b6573d6000803e3d6000fd5b505050506040513d601f19601f820116820180604052508101906106da9190611229565b90507fcd6e45c8998311cab7e9d4385596cac867e20a0587194b954fa3a731c93ce78b8160405161070b9190610dd5565b60405180910390a150505050565b6000600260009054906101000a900473ffffffffffffffffffffffffffffffffffffffff16905090565b6000600163ffffffff16905090565b600060606000600260149054906101000a900460ff16600181111561077a57610779610b35565b5b6000600181111561078e5761078d610b35565b5b14905060007f0000000000000000000000000000000000000000000000000000000000000000600154426107c29190611285565b119050600080600080549050119050600080471190508380156107e25750825b80156107eb5750815b80156107f45750805b955050505050915091565b6000600154905090565b6000600361ffff16905090565b600080828154811061082b5761082a6112b9565b5b9060005260206000200160009054906101000a900473ffffffffffffffffffffffffffffffffffffffff169050919050565b60008080549050905090565b6000808054905082600081518110610884576108836112b9565b5b60200260200101516108969190611317565b905060008082815481106108ad576108ac6112b9565b5b9060005260206000200160009054906101000a900473ffffffffffffffffffffffffffffffffffffffff16905080600260006101000a81548173ffffffffffffffffffffffffffffffffffffffff021916908373ffffffffffffffffffffffffffffffffffffffff1602179055506000600260146101000a81548160ff0219169083600181111561094157610940610b35565b5b0217905550600067ffffffffffffffff81111561096157610960610c27565b5b60405190808252806020026020018201604052801561098f5781602001602082028036833780820191505090505b50600090805190602001906109a5929190610a8e565b504260018190555060008173ffffffffffffffffffffffffffffffffffffffff16476040516109d390611379565b60006040518083038185875af1925050503d8060008114610a10576040519150601f19603f3d011682016040523d82523d6000602084013e610a15565b606091505b5050905080610a50576040517fa1d04b3900000000000000000000000000000000000000000000000000000000815260040160405180910390fd5b7f5b690ec4a06fe979403046eaeea5b3ce38524683c3001f662c8b5a829632f7df82604051610a7f91906113ed565b60405180910390a15050505050565b828054828255906000526020600020908101928215610b07579160200282015b82811115610b065782518260006101000a81548173ffffffffffffffffffffffffffffffffffffffff021916908373ffffffffffffffffffffffffffffffffffffffff16021790555091602001919060010190610aae565b5b509050610b149190610b18565b5090565b5b80821115610b31576000816000905550600101610b19565b5090565b7f4e487b7100000000000000000000000000000000000000000000000000000000600052602160045260246000fd5b60028110610b7557610b74610b35565b5b50565b6000819050610b8682610b64565b919050565b6000610b9682610b78565b9050919050565b610ba681610b8b565b82525050565b6000602082019050610bc16000830184610b9d565b92915050565b6000604051905090565b600080fd5b600080fd5b6000819050919050565b610bee81610bdb565b8114610bf957600080fd5b50565b600081359050610c0b81610be5565b92915050565b600080fd5b6000601f19601f8301169050919050565b7f4e487b7100000000000000000000000000000000000000000000000000000000600052604160045260246000fd5b610c5f82610c16565b810181811067ffffffffffffffff82111715610c7e57610c7d610c27565b5b80604052505050565b6000610c91610bc7565b9050610c9d8282610c56565b919050565b600067ffffffffffffffff821115610cbd57610cbc610c27565b5b602082029050602081019050919050565b600080fd5b6000610ce6610ce184610ca2565b610c87565b90508083825260208201905060208402830185811115610d0957610d08610cce565b5b835b81811015610d325780610d1e8882610bfc565b845260208401935050602081019050610d0b565b5050509392505050565b600082601f830112610d5157610d50610c11565b5b8135610d61848260208601610cd3565b91505092915050565b60008060408385031215610d8157610d80610bd1565b5b6000610d8f85828601610bfc565b925050602083013567ffffffffffffffff811115610db057610daf610bd6565b5b610dbc85828601610d3c565b9150509250929050565b610dcf81610bdb565b82525050565b6000602082019050610dea6000830184610dc6565b92915050565b600080fd5b60008083601f840112610e0b57610e0a610c11565b5b8235905067ffffffffffffffff811115610e2857610e27610df0565b5b602083019150836001820283011115610e4457610e43610cce565b5b9250929050565b60008060208385031215610e6257610e61610bd1565b5b600083013567ffffffffffffffff811115610e8057610e7f610bd6565b5b610e8c85828601610df5565b92509250509250929050565b600073ffffffffffffffffffffffffffffffffffffffff82169050919050565b6000610ec382610e98565b9050919050565b610ed381610eb8565b82525050565b6000602082019050610eee6000830184610eca565b92915050565b600080fd5b600067ffffffffffffffff821115610f1457610f13610c27565b5b610f1d82610c16565b9050602081019050919050565b82818337600083830152505050565b6000610f4c610f4784610ef9565b610c87565b905082815260208101848484011115610f6857610f67610ef4565b5b610f73848285610f2a565b509392505050565b600082601f830112610f9057610f8f610c11565b5b8135610fa0848260208601610f39565b91505092915050565b600060208284031215610fbf57610fbe610bd1565b5b600082013567ffffffffffffffff811115610fdd57610fdc610bd6565b5b610fe984828501610f7b565b91505092915050565b60008115159050919050565b61100781610ff2565b82525050565b600081519050919050565b600082825260208201905092915050565b60005b8381101561104757808201518184015260208101905061102c565b60008484015250505050565b600061105e8261100d565b6110688185611018565b9350611078818560208601611029565b61108181610c16565b840191505092915050565b60006040820190506110a16000830185610ffe565b81810360208301526110b38184611053565b90509392505050565b6000602082840312156110d2576110d1610bd1565b5b60006110e084828501610bfc565b91505092915050565b60006040820190506110fe6000830185610eca565b61110b6020830184610eca565b9392505050565b60006060820190506111276000830186610dc6565b6111346020830185610dc6565b6111416040830184610dc6565b949350505050565b6000819050919050565b61115c81611149565b82525050565b600067ffffffffffffffff82169050919050565b61117f81611162565b82525050565b600061ffff82169050919050565b61119c81611185565b82525050565b600063ffffffff82169050919050565b6111bb816111a2565b82525050565b600060a0820190506111d66000830188611153565b6111e36020830187611176565b6111f06040830186611193565b6111fd60608301856111b2565b61120a60808301846111b2565b9695505050505050565b60008151905061122381610be5565b92915050565b60006020828403121561123f5761123e610bd1565b5b600061124d84828501611214565b91505092915050565b7f4e487b7100000000000000000000000000000000000000000000000000000000600052601160045260246000fd5b600061129082610bdb565b915061129b83610bdb565b92508282039050818111156112b3576112b2611256565b5b92915050565b7f4e487b7100000000000000000000000000000000000000000000000000000000600052603260045260246000fd5b7f4e487b7100000000000000000000000000000000000000000000000000000000600052601260045260246000fd5b600061132282610bdb565b915061132d83610bdb565b92508261133d5761133c6112e8565b5b828206905092915050565b600081905092915050565b50565b6000611363600083611348565b915061136e82611353565b600082019050919050565b600061138482611356565b9150819050919050565b6000819050919050565b60006113b36113ae6113a984610e98565b61138e565b610e98565b9050919050565b60006113c582611398565b9050919050565b60006113d7826113ba565b9050919050565b6113e7816113cc565b82525050565b600060208201905061140260008301846113de565b9291505056fea264697066735822122074d4b630f32284f20b29108523799a402b06d9cecef21c69cbde5da0c9f16a9264736f6c63430008120033",
  "linkReferences": {},
  "deployedLinkReferences": {}
}