{
  "_format": "hh-sol-artifact-1",
  "contractName": "Raffle",
  "sourceName": "contracts/Raffle.sol",
  "abi": [
    {
      "inputs": [
        {
          "internalType": "address",
          "name": "vrfCoordinatorV2",
          "type": "address"
        },
        {
          "internalType": "uint256",
          "name": "entranceFee",
          "type": "uint256"
        },
        {
          "internalType": "bytes32",
          "name": "gasLane",
          "type": "bytes32"
        },
        {
          "internalType": "uint64",
          "name": "subscriptionId",
          "type": "uint64"
        },
        {
          "internalType": "uint32",
          "name": "callbackGasLimit",
          "type": "uint32"
        },
        {
          "internalType": "uint256",
          "name": "interval",
          "type": "uint256"
        }
      ],
      "stateMutability": "nonpayable",
      "type": "constructor"
    },
    {
      "inputs": [
        {
          "internalType": "address",
          "name": "have",
          "type": "address"
        },
        {
          "internalType": "address",
          "name": "want",
          "type": "address"
        }
      ],
      "name": "OnlyCoordinatorCanFulfill",
      "type": "error"
    },
    {
      "inputs": [],
      "name": "Raffle__NotEnoughETHEntered",
      "type": "error"
    },
    {
      "inputs": [],
      "name": "Raffle__NotOpen",
      "type": "error"
    },
    {
      "inputs": [],
      "name": "Raffle__TransferFailed",
      "type": "error"
    },
    {
      "inputs": [
        {
          "internalType": "uint256",
          "name": "currentBalance",
          "type": "uint256"
        },
        {
          "internalType": "uint256",
          "name": "numPlayers",
          "type": "uint256"
        },
        {
          "internalType": "uint256",
          "name": "rafleState",
          "type": "uint256"
        }
      ],
      "name": "Raffle__UpKeepNotNeeded",
      "type": "error"
    },
    {
      "anonymous": false,
      "inputs": [
        {
          "indexed": true,
          "internalType": "address",
          "name": "player",
          "type": "address"
        }
      ],
      "name": "RaffleEnter",
      "type": "event"
    },
    {
      "anonymous": false,
      "inputs": [
        {
          "indexed": false,
          "internalType": "uint256",
          "name": "index",
          "type": "uint256"
        }
      ],
      "name": "RequestedRaffleWinner",
      "type": "event"
    },
    {
      "anonymous": false,
      "inputs": [
        {
          "indexed": false,
          "internalType": "address",
          "name": "indexWinner",
          "type": "address"
        }
      ],
      "name": "WinnerPicked",
      "type": "event"
    },
    {
      "inputs": [
        {
          "internalType": "bytes",
          "name": "",
          "type": "bytes"
        }
      ],
      "name": "checkUpkeep",
      "outputs": [
        {
          "internalType": "bool",
          "name": "upKeepNeeded",
          "type": "bool"
        },
        {
          "internalType": "bytes",
          "name": "",
          "type": "bytes"
        }
      ],
      "stateMutability": "view",
      "type": "function"
    },
    {
      "inputs": [],
      "name": "enterRaffle",
      "outputs": [],
      "stateMutability": "payable",
      "type": "function"
    },
    {
      "inputs": [],
      "name": "getEntrenceFee",
      "outputs": [
        {
          "internalType": "uint256",
          "name": "",
          "type": "uint256"
        }
      ],
      "stateMutability": "view",
      "type": "function"
    },
    {
      "inputs": [],
      "name": "getInterval",
      "outputs": [
        {
          "internalType": "uint256",
          "name": "",
          "type": "uint256"
        }
      ],
      "stateMutability": "view",
      "type": "function"
    },
    {
      "inputs": [],
      "name": "getLatesTimeStamp",
      "outputs": [
        {
          "internalType": "uint256",
          "name": "",
          "type": "uint256"
        }
      ],
      "stateMutability": "view",
      "type": "function"
    },
    {
      "inputs": [],
      "name": "getNumWords",
      "outputs": [
        {
          "internalType": "uint256",
          "name": "",
          "type": "uint256"
        }
      ],
      "stateMutability": "pure",
      "type": "function"
    },
    {
      "inputs": [],
      "name": "getNumerOfPlayer",
      "outputs": [
        {
          "internalType": "uint256",
          "name": "",
          "type": "uint256"
        }
      ],
      "stateMutability": "view",
      "type": "function"
    },
    {
      "inputs": [
        {
          "internalType": "uint256",
          "name": "index",
          "type": "uint256"
        }
      ],
      "name": "getPlayer",
      "outputs": [
        {
          "internalType": "address",
          "name": "",
          "type": "address"
        }
      ],
      "stateMutability": "view",
      "type": "function"
    },
    {
      "inputs": [],
      "name": "getRaffleState",
      "outputs": [
        {
          "internalType": "enum Raffle.RaffleState",
          "name": "",
          "type": "uint8"
        }
      ],
      "stateMutability": "view",
      "type": "function"
    },
    {
      "inputs": [],
      "name": "getRecentWinner",
      "outputs": [
        {
          "internalType": "address",
          "name": "",
          "type": "address"
        }
      ],
      "stateMutability": "view",
      "type": "function"
    },
    {
      "inputs": [
        {
          "internalType": "bytes",
          "name": "",
          "type": "bytes"
        }
      ],
      "name": "performUpkeep",
      "outputs": [],
      "stateMutability": "nonpayable",
      "type": "function"
    },
    {
      "inputs": [
        {
          "internalType": "uint256",
          "name": "requestId",
          "type": "uint256"
        },
        {
          "internalType": "uint256[]",
          "name": "randomWords",
          "type": "uint256[]"
        }
      ],
      "name": "rawFulfillRandomWords",
      "outputs": [],
      "stateMutability": "nonpayable",
      "type": "function"
    },
    {
      "inputs": [],
      "name": "requestConfirmations",
      "outputs": [
        {
          "internalType": "uint256",
          "name": "",
          "type": "uint256"
        }
      ],
      "stateMutability": "pure",
      "type": "function"
    }
  ],
  "bytecode": "0x6101606040523480156200001257600080fd5b506040516200187b3803806200187b833981810160405281019062000038919062000294565b858073ffffffffffffffffffffffffffffffffffffffff1660808173ffffffffffffffffffffffffffffffffffffffff1681525050508460a081815250508573ffffffffffffffffffffffffffffffffffffffff1660c08173ffffffffffffffffffffffffffffffffffffffff16815250508360e081815250508267ffffffffffffffff166101008167ffffffffffffffff16815250508163ffffffff166101208163ffffffff16815250506000600260146101000a81548160ff021916908360018111156200010d576200010c62000330565b5b0217905550426001819055508061014081815250505050505050506200035f565b600080fd5b600073ffffffffffffffffffffffffffffffffffffffff82169050919050565b6000620001608262000133565b9050919050565b620001728162000153565b81146200017e57600080fd5b50565b600081519050620001928162000167565b92915050565b6000819050919050565b620001ad8162000198565b8114620001b957600080fd5b50565b600081519050620001cd81620001a2565b92915050565b6000819050919050565b620001e881620001d3565b8114620001f457600080fd5b50565b6000815190506200020881620001dd565b92915050565b600067ffffffffffffffff82169050919050565b6200022d816200020e565b81146200023957600080fd5b50565b6000815190506200024d8162000222565b92915050565b600063ffffffff82169050919050565b6200026e8162000253565b81146200027a57600080fd5b50565b6000815190506200028e8162000263565b92915050565b60008060008060008060c08789031215620002b457620002b36200012e565b5b6000620002c489828a0162000181565b9650506020620002d789828a01620001bc565b9550506040620002ea89828a01620001f7565b9450506060620002fd89828a016200023c565b93505060806200031089828a016200027d565b92505060a06200032389828a01620001bc565b9150509295509295509295565b7f4e487b7100000000000000000000000000000000000000000000000000000000600052602160045260246000fd5b60805160a05160c05160e0516101005161012051610140516114ac620003cf600039600081816107db01526108530152600061069c01526000610679015260006106580152600061061c0152600081816103d101526103f701526000818161030f015261036301526114ac6000f3fe6080604052600436106100c25760003560e01c806353a2c19a1161007f57806391ad27b41161005957806391ad27b414610238578063b0fb162f14610263578063e55ae4e81461028e578063ecccd98d146102cb576100c2565b806353a2c19a146101a45780636e04ff0d146101cf5780637e6cef7e1461020d576100c2565b8063115cbaf5146100c75780631fe543e3146100f257806321ccad051461011b5780632cfcc539146101465780634585e33b14610150578063473f1ddc14610179575b600080fd5b3480156100d357600080fd5b506100dc6102f6565b6040516100e99190610c1a565b60405180910390f35b3480156100fe57600080fd5b5061011960048036038101906101149190610dd8565b61030d565b005b34801561012757600080fd5b506101306103cd565b60405161013d9190610e43565b60405180910390f35b61014e6103f5565b005b34801561015c57600080fd5b5061017760048036038101906101729190610eb9565b610564565b005b34801561018557600080fd5b5061018e61075f565b60405161019b9190610f47565b60405180910390f35b3480156101b057600080fd5b506101b9610789565b6040516101c69190610e43565b60405180910390f35b3480156101db57600080fd5b506101f660048036038101906101f19190611017565b610798565b6040516102049291906110fa565b60405180910390f35b34801561021957600080fd5b50610222610845565b60405161022f9190610e43565b60405180910390f35b34801561024457600080fd5b5061024d61084f565b60405161025a9190610e43565b60405180910390f35b34801561026f57600080fd5b50610278610877565b6040516102859190610e43565b60405180910390f35b34801561029a57600080fd5b506102b560048036038101906102b0919061112a565b610884565b6040516102c29190610f47565b60405180910390f35b3480156102d757600080fd5b506102e06108cb565b6040516102ed9190610e43565b60405180910390f35b6000600260149054906101000a900460ff16905090565b7f000000000000000000000000000000000000000000000000000000000000000073ffffffffffffffffffffffffffffffffffffffff163373ffffffffffffffffffffffffffffffffffffffff16146103bf57337f00000000000000000000000000000000000000000000000000000000000000006040517f1cf993f40000000000000000000000000000000000000000000000000000000081526004016103b6929190611157565b60405180910390fd5b6103c982826108d7565b5050565b60007f0000000000000000000000000000000000000000000000000000000000000000905090565b7f000000000000000000000000000000000000000000000000000000000000000034101561044f576040517fbd4e069500000000000000000000000000000000000000000000000000000000815260040160405180910390fd5b6000600181111561046357610462610ba3565b5b600260149054906101000a900460ff16600181111561048557610484610ba3565b5b146104bc576040517f1425571c00000000000000000000000000000000000000000000000000000000815260040160405180910390fd5b6000339080600181540180825580915050600190039060005260206000200160009091909190916101000a81548173ffffffffffffffffffffffffffffffffffffffff021916908373ffffffffffffffffffffffffffffffffffffffff1602179055503373ffffffffffffffffffffffffffffffffffffffff167f0805e1d667bddb8a95f0f09880cf94f403fb596ce79928d9f29b74203ba284d460405160405180910390a2565b600061057e60405180602001604052806000815250610798565b509050806105ed5747600080549050600260149054906101000a900460ff1660018111156105af576105ae610ba3565b5b6040517f3a8d60860000000000000000000000000000000000000000000000000000000081526004016105e493929190611180565b60405180910390fd5b6001600260146101000a81548160ff0219169083600181111561061357610612610ba3565b5b021790555060007f000000000000000000000000000000000000000000000000000000000000000073ffffffffffffffffffffffffffffffffffffffff16635d3b1d307f00000000000000000000000000000000000000000000000000000000000000007f000000000000000000000000000000000000000000000000000000000000000060037f000000000000000000000000000000000000000000000000000000000000000060016040518663ffffffff1660e01b81526004016106dd95949392919061122f565b6020604051808303816000875af11580156106fc573d6000803e3d6000fd5b505050506040513d601f19601f820116820180604052508101906107209190611297565b90507fcd6e45c8998311cab7e9d4385596cac867e20a0587194b954fa3a731c93ce78b816040516107519190610e43565b60405180910390a150505050565b6000600260009054906101000a900473ffffffffffffffffffffffffffffffffffffffff16905090565b6000600163ffffffff16905090565b600060606000600260149054906101000a900460ff1660018111156107c0576107bf610ba3565b5b600060018111156107d4576107d3610ba3565b5b14905060007f00000000000000000000000000000000000000000000000000000000000000006001544261080891906112f3565b119050600080600080549050119050600080471190508380156108285750825b80156108315750815b801561083a5750805b955050505050915091565b6000600154905090565b60007f0000000000000000000000000000000000000000000000000000000000000000905090565b6000600361ffff16905090565b600080828154811061089957610898611327565b5b9060005260206000200160009054906101000a900473ffffffffffffffffffffffffffffffffffffffff169050919050565b60008080549050905090565b60008080549050826000815181106108f2576108f1611327565b5b60200260200101516109049190611385565b9050600080828154811061091b5761091a611327565b5b9060005260206000200160009054906101000a900473ffffffffffffffffffffffffffffffffffffffff16905080600260006101000a81548173ffffffffffffffffffffffffffffffffffffffff021916908373ffffffffffffffffffffffffffffffffffffffff1602179055506000600260146101000a81548160ff021916908360018111156109af576109ae610ba3565b5b0217905550600067ffffffffffffffff8111156109cf576109ce610c95565b5b6040519080825280602002602001820160405280156109fd5781602001602082028036833780820191505090505b5060009080519060200190610a13929190610afc565b504260018190555060008173ffffffffffffffffffffffffffffffffffffffff1647604051610a41906113e7565b60006040518083038185875af1925050503d8060008114610a7e576040519150601f19603f3d011682016040523d82523d6000602084013e610a83565b606091505b5050905080610abe576040517fa1d04b3900000000000000000000000000000000000000000000000000000000815260040160405180910390fd5b7f5b690ec4a06fe979403046eaeea5b3ce38524683c3001f662c8b5a829632f7df82604051610aed919061145b565b60405180910390a15050505050565b828054828255906000526020600020908101928215610b75579160200282015b82811115610b745782518260006101000a81548173ffffffffffffffffffffffffffffffffffffffff021916908373ffffffffffffffffffffffffffffffffffffffff16021790555091602001919060010190610b1c565b5b509050610b829190610b86565b5090565b5b80821115610b9f576000816000905550600101610b87565b5090565b7f4e487b7100000000000000000000000000000000000000000000000000000000600052602160045260246000fd5b60028110610be357610be2610ba3565b5b50565b6000819050610bf482610bd2565b919050565b6000610c0482610be6565b9050919050565b610c1481610bf9565b82525050565b6000602082019050610c2f6000830184610c0b565b92915050565b6000604051905090565b600080fd5b600080fd5b6000819050919050565b610c5c81610c49565b8114610c6757600080fd5b50565b600081359050610c7981610c53565b92915050565b600080fd5b6000601f19601f8301169050919050565b7f4e487b7100000000000000000000000000000000000000000000000000000000600052604160045260246000fd5b610ccd82610c84565b810181811067ffffffffffffffff82111715610cec57610ceb610c95565b5b80604052505050565b6000610cff610c35565b9050610d0b8282610cc4565b919050565b600067ffffffffffffffff821115610d2b57610d2a610c95565b5b602082029050602081019050919050565b600080fd5b6000610d54610d4f84610d10565b610cf5565b90508083825260208201905060208402830185811115610d7757610d76610d3c565b5b835b81811015610da05780610d8c8882610c6a565b845260208401935050602081019050610d79565b5050509392505050565b600082601f830112610dbf57610dbe610c7f565b5b8135610dcf848260208601610d41565b91505092915050565b60008060408385031215610def57610dee610c3f565b5b6000610dfd85828601610c6a565b925050602083013567ffffffffffffffff811115610e1e57610e1d610c44565b5b610e2a85828601610daa565b9150509250929050565b610e3d81610c49565b82525050565b6000602082019050610e586000830184610e34565b92915050565b600080fd5b60008083601f840112610e7957610e78610c7f565b5b8235905067ffffffffffffffff811115610e9657610e95610e5e565b5b602083019150836001820283011115610eb257610eb1610d3c565b5b9250929050565b60008060208385031215610ed057610ecf610c3f565b5b600083013567ffffffffffffffff811115610eee57610eed610c44565b5b610efa85828601610e63565b92509250509250929050565b600073ffffffffffffffffffffffffffffffffffffffff82169050919050565b6000610f3182610f06565b9050919050565b610f4181610f26565b82525050565b6000602082019050610f5c6000830184610f38565b92915050565b600080fd5b600067ffffffffffffffff821115610f8257610f81610c95565b5b610f8b82610c84565b9050602081019050919050565b82818337600083830152505050565b6000610fba610fb584610f67565b610cf5565b905082815260208101848484011115610fd657610fd5610f62565b5b610fe1848285610f98565b509392505050565b600082601f830112610ffe57610ffd610c7f565b5b813561100e848260208601610fa7565b91505092915050565b60006020828403121561102d5761102c610c3f565b5b600082013567ffffffffffffffff81111561104b5761104a610c44565b5b61105784828501610fe9565b91505092915050565b60008115159050919050565b61107581611060565b82525050565b600081519050919050565b600082825260208201905092915050565b60005b838110156110b557808201518184015260208101905061109a565b60008484015250505050565b60006110cc8261107b565b6110d68185611086565b93506110e6818560208601611097565b6110ef81610c84565b840191505092915050565b600060408201905061110f600083018561106c565b818103602083015261112181846110c1565b90509392505050565b6000602082840312156111405761113f610c3f565b5b600061114e84828501610c6a565b91505092915050565b600060408201905061116c6000830185610f38565b6111796020830184610f38565b9392505050565b60006060820190506111956000830186610e34565b6111a26020830185610e34565b6111af6040830184610e34565b949350505050565b6000819050919050565b6111ca816111b7565b82525050565b600067ffffffffffffffff82169050919050565b6111ed816111d0565b82525050565b600061ffff82169050919050565b61120a816111f3565b82525050565b600063ffffffff82169050919050565b61122981611210565b82525050565b600060a08201905061124460008301886111c1565b61125160208301876111e4565b61125e6040830186611201565b61126b6060830185611220565b6112786080830184611220565b9695505050505050565b60008151905061129181610c53565b92915050565b6000602082840312156112ad576112ac610c3f565b5b60006112bb84828501611282565b91505092915050565b7f4e487b7100000000000000000000000000000000000000000000000000000000600052601160045260246000fd5b60006112fe82610c49565b915061130983610c49565b9250828203905081811115611321576113206112c4565b5b92915050565b7f4e487b7100000000000000000000000000000000000000000000000000000000600052603260045260246000fd5b7f4e487b7100000000000000000000000000000000000000000000000000000000600052601260045260246000fd5b600061139082610c49565b915061139b83610c49565b9250826113ab576113aa611356565b5b828206905092915050565b600081905092915050565b50565b60006113d16000836113b6565b91506113dc826113c1565b600082019050919050565b60006113f2826113c4565b9150819050919050565b6000819050919050565b600061142161141c61141784610f06565b6113fc565b610f06565b9050919050565b600061143382611406565b9050919050565b600061144582611428565b9050919050565b6114558161143a565b82525050565b6000602082019050611470600083018461144c565b9291505056fea2646970667358221220e57aa93412701af84cfc8d90a3e0efaef8d8246f0515a10a8a15e6ed9797d42064736f6c63430008120033",
  "linkReferences": {},
  "deployedLinkReferences": {}
}